{
  "contractName": "Urna",
  "abi": [
    {
      "inputs": [
        {
          "internalType": "string[]",
          "name": "_nomePresidenciavel",
          "type": "string[]"
        }
      ],
      "stateMutability": "nonpayable",
      "type": "constructor"
    },
    {
      "inputs": [
        {
          "internalType": "address",
          "name": "",
          "type": "address"
        }
      ],
      "name": "eleitor",
      "outputs": [
        {
          "internalType": "bool",
          "name": "",
          "type": "bool"
        }
      ],
      "stateMutability": "view",
      "type": "function",
      "constant": true
    },
    {
      "inputs": [
        {
          "internalType": "uint256",
          "name": "",
          "type": "uint256"
        }
      ],
      "name": "presidenciaveis",
      "outputs": [
        {
          "internalType": "string",
          "name": "nome",
          "type": "string"
        },
        {
          "internalType": "uint256",
          "name": "qtdVotos",
          "type": "uint256"
        }
      ],
      "stateMutability": "view",
      "type": "function",
      "constant": true
    },
    {
      "inputs": [
        {
          "internalType": "uint256",
          "name": "_id",
          "type": "uint256"
        }
      ],
      "name": "Votar",
      "outputs": [],
      "stateMutability": "nonpayable",
      "type": "function"
    },
    {
      "inputs": [],
      "name": "getVotos",
      "outputs": [
        {
          "components": [
            {
              "internalType": "string",
              "name": "nome",
              "type": "string"
            },
            {
              "internalType": "uint256",
              "name": "qtdVotos",
              "type": "uint256"
            }
          ],
          "internalType": "struct Urna.Presidenciavel[]",
          "name": "",
          "type": "tuple[]"
        }
      ],
      "stateMutability": "view",
      "type": "function",
      "constant": true
    }
  ],
  "bytecode": "0x60806040523480156200001157600080fd5b50604051620010c2380380620010c2833981810160405281019062000037919062000379565b60008151905060005b81811015620000e157600060405180604001604052808584815181106200006c576200006b620003ca565b5b60200260200101518152602001600081525090806001815401808255809150506001900390600052602060002090600202016000909190919091506000820151816000019081620000be919062000644565b506020820151816001015550508080620000d8906200075a565b91505062000040565b505050620007a7565b6000604051905090565b600080fd5b600080fd5b600080fd5b6000601f19601f8301169050919050565b7f4e487b7100000000000000000000000000000000000000000000000000000000600052604160045260246000fd5b6200014e8262000103565b810181811067ffffffffffffffff8211171562000170576200016f62000114565b5b80604052505050565b600062000185620000ea565b905062000193828262000143565b919050565b600067ffffffffffffffff821115620001b657620001b562000114565b5b602082029050602081019050919050565b600080fd5b600080fd5b600067ffffffffffffffff821115620001ef57620001ee62000114565b5b620001fa8262000103565b9050602081019050919050565b60005b83811015620002275780820151818401526020810190506200020a565b60008484015250505050565b60006200024a6200024484620001d1565b62000179565b905082815260208101848484011115620002695762000268620001cc565b5b6200027684828562000207565b509392505050565b600082601f830112620002965762000295620000fe565b5b8151620002a884826020860162000233565b91505092915050565b6000620002c8620002c28462000198565b62000179565b90508083825260208201905060208402830185811115620002ee57620002ed620001c7565b5b835b818110156200033c57805167ffffffffffffffff811115620003175762000316620000fe565b5b8086016200032689826200027e565b85526020850194505050602081019050620002f0565b5050509392505050565b600082601f8301126200035e576200035d620000fe565b5b815162000370848260208601620002b1565b91505092915050565b600060208284031215620003925762000391620000f4565b5b600082015167ffffffffffffffff811115620003b357620003b2620000f9565b5b620003c18482850162000346565b91505092915050565b7f4e487b7100000000000000000000000000000000000000000000000000000000600052603260045260246000fd5b600081519050919050565b7f4e487b7100000000000000000000000000000000000000000000000000000000600052602260045260246000fd5b600060028204905060018216806200044c57607f821691505b60208210810362000462576200046162000404565b5b50919050565b60008190508160005260206000209050919050565b60006020601f8301049050919050565b600082821b905092915050565b600060088302620004cc7fffffffffffffffffffffffffffffffffffffffffffffffffffffffffffffffff826200048d565b620004d886836200048d565b95508019841693508086168417925050509392505050565b6000819050919050565b6000819050919050565b6000620005256200051f6200051984620004f0565b620004fa565b620004f0565b9050919050565b6000819050919050565b620005418362000504565b6200055962000550826200052c565b8484546200049a565b825550505050565b600090565b6200057062000561565b6200057d81848462000536565b505050565b5b81811015620005a5576200059960008262000566565b60018101905062000583565b5050565b601f821115620005f457620005be8162000468565b620005c9846200047d565b81016020851015620005d9578190505b620005f1620005e8856200047d565b83018262000582565b50505b505050565b600082821c905092915050565b60006200061960001984600802620005f9565b1980831691505092915050565b600062000634838362000606565b9150826002028217905092915050565b6200064f82620003f9565b67ffffffffffffffff8111156200066b576200066a62000114565b5b62000677825462000433565b62000684828285620005a9565b600060209050601f831160018114620006bc5760008415620006a7578287015190505b620006b3858262000626565b86555062000723565b601f198416620006cc8662000468565b60005b82811015620006f657848901518255600182019150602085019450602081019050620006cf565b8683101562000716578489015162000712601f89168262000606565b8355505b6001600288020188555050505b505050505050565b7f4e487b7100000000000000000000000000000000000000000000000000000000600052601160045260246000fd5b60006200076782620004f0565b91507fffffffffffffffffffffffffffffffffffffffffffffffffffffffffffffffff82036200079c576200079b6200072b565b5b600182019050919050565b61090b80620007b76000396000f3fe608060405234801561001057600080fd5b506004361061004c5760003560e01c806375150066146100515780638a5ca9b114610081578063d24b99531461009f578063f08e8dc0146100bb575b600080fd5b61006b60048036038101906100669190610468565b6100ec565b60405161007891906104b0565b60405180910390f35b61008961010c565b6040516100969190610673565b60405180910390f35b6100b960048036038101906100b491906106c1565b610207565b005b6100d560048036038101906100d091906106c1565b610349565b6040516100e3929190610747565b60405180910390f35b60016020528060005260406000206000915054906101000a900460ff1681565b60606000805480602002602001604051908101604052809291908181526020016000905b828210156101fe5783829060005260206000209060020201604051806040016040529081600082018054610163906107a6565b80601f016020809104026020016040519081016040528092919081815260200182805461018f906107a6565b80156101dc5780601f106101b1576101008083540402835291602001916101dc565b820191906000526020600020905b8154815290600101906020018083116101bf57829003601f168201915b5050505050815260200160018201548152505081526020019060010190610130565b50505050905090565b600160003373ffffffffffffffffffffffffffffffffffffffff1673ffffffffffffffffffffffffffffffffffffffff16815260200190815260200160002060009054906101000a900460ff1615610294576040517f08c379a000000000000000000000000000000000000000000000000000000000815260040161028b90610823565b60405180910390fd5b6001600082815481106102aa576102a9610843565b5b9060005260206000209060020201600101546102c691906108a1565b600082815481106102da576102d9610843565b5b90600052602060002090600202016001018190555060018060003373ffffffffffffffffffffffffffffffffffffffff1673ffffffffffffffffffffffffffffffffffffffff16815260200190815260200160002060006101000a81548160ff02191690831515021790555050565b6000818154811061035957600080fd5b906000526020600020906002020160009150905080600001805461037c906107a6565b80601f01602080910402602001604051908101604052809291908181526020018280546103a8906107a6565b80156103f55780601f106103ca576101008083540402835291602001916103f5565b820191906000526020600020905b8154815290600101906020018083116103d857829003601f168201915b5050505050908060010154905082565b600080fd5b600073ffffffffffffffffffffffffffffffffffffffff82169050919050565b60006104358261040a565b9050919050565b6104458161042a565b811461045057600080fd5b50565b6000813590506104628161043c565b92915050565b60006020828403121561047e5761047d610405565b5b600061048c84828501610453565b91505092915050565b60008115159050919050565b6104aa81610495565b82525050565b60006020820190506104c560008301846104a1565b92915050565b600081519050919050565b600082825260208201905092915050565b6000819050602082019050919050565b600081519050919050565b600082825260208201905092915050565b60005b83811015610531578082015181840152602081019050610516565b60008484015250505050565b6000601f19601f8301169050919050565b6000610559826104f7565b6105638185610502565b9350610573818560208601610513565b61057c8161053d565b840191505092915050565b6000819050919050565b61059a81610587565b82525050565b600060408301600083015184820360008601526105bd828261054e565b91505060208301516105d26020860182610591565b508091505092915050565b60006105e983836105a0565b905092915050565b6000602082019050919050565b6000610609826104cb565b61061381856104d6565b935083602082028501610625856104e7565b8060005b85811015610661578484038952815161064285826105dd565b945061064d836105f1565b925060208a01995050600181019050610629565b50829750879550505050505092915050565b6000602082019050818103600083015261068d81846105fe565b905092915050565b61069e81610587565b81146106a957600080fd5b50565b6000813590506106bb81610695565b92915050565b6000602082840312156106d7576106d6610405565b5b60006106e5848285016106ac565b91505092915050565b600082825260208201905092915050565b600061070a826104f7565b61071481856106ee565b9350610724818560208601610513565b61072d8161053d565b840191505092915050565b61074181610587565b82525050565b6000604082019050818103600083015261076181856106ff565b90506107706020830184610738565b9392505050565b7f4e487b7100000000000000000000000000000000000000000000000000000000600052602260045260246000fd5b600060028204905060018216806107be57607f821691505b6020821081036107d1576107d0610777565b5b50919050565b7f456c6569746f72206a6120766f746f7521000000000000000000000000000000600082015250565b600061080d6011836106ee565b9150610818826107d7565b602082019050919050565b6000602082019050818103600083015261083c81610800565b9050919050565b7f4e487b7100000000000000000000000000000000000000000000000000000000600052603260045260246000fd5b7f4e487b7100000000000000000000000000000000000000000000000000000000600052601160045260246000fd5b60006108ac82610587565b91506108b783610587565b92508282019050808211156108cf576108ce610872565b5b9291505056fea2646970667358221220d4c4c1880db6c8156a152742c201eae4dbe0b6b9eaf02e1b4a0b38d70a761c5964736f6c63430008110033",
  "immutableReferences": {},
  "source": "pragma solidity >=0.8.0;\n\n// SPDX-License-Identifier: GPL-3.0\ncontract Urna {\n    struct Presidenciavel {\n        string nome;\n        uint256 qtdVotos;\n    }\n\n    Presidenciavel[] public presidenciaveis;\n    mapping(address => bool) public eleitor;\n\n    // mapping(address => bool) public sacou;\n\n    // event TransferReceived(address _from, uint256 _amount);\n    // event TransferSent(address _from, address _destAddr, uint256 _amount);\n\n    // uint256 public Saldo;\n    // uint256 public LimiteSaque = 100000;\n\n    // receive() external payable {\n    //     Saldo += msg.value;\n    //     emit TransferReceived(msg.sender, msg.value);\n    // }\n\n    constructor(string[] memory _nomePresidenciavel) {\n        uint256 Qtd = _nomePresidenciavel.length;\n        for (uint256 i = 0; i < Qtd; i++) {\n            presidenciaveis.push(\n                Presidenciavel({nome: _nomePresidenciavel[i], qtdVotos: 0})\n            );\n        }\n    }\n\n    // function deposito() public payable {\n    //     Saldo += msg.value;\n    // }\n\n    function Votar(uint256 _id) public {\n        require(!eleitor[msg.sender], \"Eleitor ja votou!\");\n        presidenciaveis[_id].qtdVotos = presidenciaveis[_id].qtdVotos + 1;\n        eleitor[msg.sender] = true;\n    }\n\n    function getVotos() public view returns (Presidenciavel[] memory) {\n        return presidenciaveis;\n    }\n\n    // function Saque() public {\n    //     require(Saldo > LimiteSaque, \"Nao ha mais saldo!\");\n    //     require(!sacou[msg.sender], \"Ja sacou, nao pode mais...\");\n\n    //     Saldo -= LimiteSaque;\n    //     payable(msg.sender).transfer(LimiteSaque);\n    //     sacou[msg.sender] = true;\n    // }\n}\n",
  "sourcePath": "/var/www/html/react/Cyber Urna/contracts/cyberUrna.sol",
  "compiler": {
    "name": "solc",
    "version": "0.8.17+commit.8df45f5f.Emscripten.clang"
  },
  "schemaVersion": "3.4.10",
  "updatedAt": "2022-10-23T16:25:17.230Z",
  "networkType": "ethereum",
  "devdoc": {
    "kind": "dev",
    "methods": {},
    "version": 1
  },
  "userdoc": {
    "kind": "user",
    "methods": {},
    "version": 1
  }
}