{
  "contractName": "Urna",
  "abi": [
    {
      "inputs": [
        {
          "internalType": "string[]",
          "name": "_nomePresidenciavel",
          "type": "string[]"
        }
      ],
      "stateMutability": "nonpayable",
      "type": "constructor"
    },
    {
      "anonymous": false,
      "inputs": [
        {
          "indexed": false,
          "internalType": "address",
          "name": "_from",
          "type": "address"
        },
        {
          "indexed": false,
          "internalType": "uint256",
          "name": "_amount",
          "type": "uint256"
        }
      ],
      "name": "TransferReceived",
      "type": "event"
    },
    {
      "anonymous": false,
      "inputs": [
        {
          "indexed": false,
          "internalType": "address",
          "name": "_from",
          "type": "address"
        },
        {
          "indexed": false,
          "internalType": "address",
          "name": "_destAddr",
          "type": "address"
        },
        {
          "indexed": false,
          "internalType": "uint256",
          "name": "_amount",
          "type": "uint256"
        }
      ],
      "name": "TransferSent",
      "type": "event"
    },
    {
      "inputs": [],
      "name": "LimiteSaque",
      "outputs": [
        {
          "internalType": "uint256",
          "name": "",
          "type": "uint256"
        }
      ],
      "stateMutability": "view",
      "type": "function",
      "constant": true
    },
    {
      "inputs": [],
      "name": "Saldo",
      "outputs": [
        {
          "internalType": "uint256",
          "name": "",
          "type": "uint256"
        }
      ],
      "stateMutability": "view",
      "type": "function",
      "constant": true
    },
    {
      "inputs": [
        {
          "internalType": "address",
          "name": "",
          "type": "address"
        }
      ],
      "name": "eleitor",
      "outputs": [
        {
          "internalType": "bool",
          "name": "",
          "type": "bool"
        }
      ],
      "stateMutability": "view",
      "type": "function",
      "constant": true
    },
    {
      "inputs": [
        {
          "internalType": "uint256",
          "name": "",
          "type": "uint256"
        }
      ],
      "name": "presidenciaveis",
      "outputs": [
        {
          "internalType": "string",
          "name": "nome",
          "type": "string"
        },
        {
          "internalType": "uint256",
          "name": "qtdVotos",
          "type": "uint256"
        }
      ],
      "stateMutability": "view",
      "type": "function",
      "constant": true
    },
    {
      "inputs": [
        {
          "internalType": "address",
          "name": "",
          "type": "address"
        }
      ],
      "name": "sacou",
      "outputs": [
        {
          "internalType": "bool",
          "name": "",
          "type": "bool"
        }
      ],
      "stateMutability": "view",
      "type": "function",
      "constant": true
    },
    {
      "stateMutability": "payable",
      "type": "receive",
      "payable": true
    },
    {
      "inputs": [],
      "name": "deposito",
      "outputs": [],
      "stateMutability": "payable",
      "type": "function",
      "payable": true
    },
    {
      "inputs": [
        {
          "internalType": "uint256",
          "name": "_id",
          "type": "uint256"
        }
      ],
      "name": "Votar",
      "outputs": [],
      "stateMutability": "nonpayable",
      "type": "function"
    },
    {
      "inputs": [],
      "name": "Saque",
      "outputs": [],
      "stateMutability": "nonpayable",
      "type": "function"
    }
  ],
  "bytecode": "0x608060405261ea606004553480156200001757600080fd5b50604051620012d9380380620012d983398181016040528101906200003d91906200037f565b60008151905060005b81811015620000e75760006040518060400160405280858481518110620000725762000071620003d0565b5b60200260200101518152602001600081525090806001815401808255809150506001900390600052602060002090600202016000909190919091506000820151816000019081620000c491906200064a565b506020820151816001015550508080620000de9062000760565b91505062000046565b505050620007ad565b6000604051905090565b600080fd5b600080fd5b600080fd5b6000601f19601f8301169050919050565b7f4e487b7100000000000000000000000000000000000000000000000000000000600052604160045260246000fd5b620001548262000109565b810181811067ffffffffffffffff821117156200017657620001756200011a565b5b80604052505050565b60006200018b620000f0565b905062000199828262000149565b919050565b600067ffffffffffffffff821115620001bc57620001bb6200011a565b5b602082029050602081019050919050565b600080fd5b600080fd5b600067ffffffffffffffff821115620001f557620001f46200011a565b5b620002008262000109565b9050602081019050919050565b60005b838110156200022d57808201518184015260208101905062000210565b60008484015250505050565b6000620002506200024a84620001d7565b6200017f565b9050828152602081018484840111156200026f576200026e620001d2565b5b6200027c8482856200020d565b509392505050565b600082601f8301126200029c576200029b62000104565b5b8151620002ae84826020860162000239565b91505092915050565b6000620002ce620002c8846200019e565b6200017f565b90508083825260208201905060208402830185811115620002f457620002f3620001cd565b5b835b818110156200034257805167ffffffffffffffff8111156200031d576200031c62000104565b5b8086016200032c898262000284565b85526020850194505050602081019050620002f6565b5050509392505050565b600082601f83011262000364576200036362000104565b5b815162000376848260208601620002b7565b91505092915050565b600060208284031215620003985762000397620000fa565b5b600082015167ffffffffffffffff811115620003b957620003b8620000ff565b5b620003c7848285016200034c565b91505092915050565b7f4e487b7100000000000000000000000000000000000000000000000000000000600052603260045260246000fd5b600081519050919050565b7f4e487b7100000000000000000000000000000000000000000000000000000000600052602260045260246000fd5b600060028204905060018216806200045257607f821691505b6020821081036200046857620004676200040a565b5b50919050565b60008190508160005260206000209050919050565b60006020601f8301049050919050565b600082821b905092915050565b600060088302620004d27fffffffffffffffffffffffffffffffffffffffffffffffffffffffffffffffff8262000493565b620004de868362000493565b95508019841693508086168417925050509392505050565b6000819050919050565b6000819050919050565b60006200052b620005256200051f84620004f6565b62000500565b620004f6565b9050919050565b6000819050919050565b62000547836200050a565b6200055f620005568262000532565b848454620004a0565b825550505050565b600090565b6200057662000567565b620005838184846200053c565b505050565b5b81811015620005ab576200059f6000826200056c565b60018101905062000589565b5050565b601f821115620005fa57620005c4816200046e565b620005cf8462000483565b81016020851015620005df578190505b620005f7620005ee8562000483565b83018262000588565b50505b505050565b600082821c905092915050565b60006200061f60001984600802620005ff565b1980831691505092915050565b60006200063a83836200060c565b9150826002028217905092915050565b6200065582620003ff565b67ffffffffffffffff8111156200067157620006706200011a565b5b6200067d825462000439565b6200068a828285620005af565b600060209050601f831160018114620006c25760008415620006ad578287015190505b620006b985826200062c565b86555062000729565b601f198416620006d2866200046e565b60005b82811015620006fc57848901518255600182019150602085019450602081019050620006d5565b868310156200071c578489015162000718601f8916826200060c565b8355505b6001600288020188555050505b505050505050565b7f4e487b7100000000000000000000000000000000000000000000000000000000600052601160045260246000fd5b60006200076d82620004f6565b91507fffffffffffffffffffffffffffffffffffffffffffffffffffffffffffffffff8203620007a257620007a162000731565b5b600182019050919050565b610b1c80620007bd6000396000f3fe60806040526004361061007f5760003560e01c8063d24b99531161004e578063d24b995314610166578063db6148071461018f578063e1de213e146101ba578063f08e8dc0146101f7576100d8565b806305795418146100dd578063548da308146100f4578063751500661461011f5780637af327a01461015c576100d8565b366100d8573460036000828254610096919061066a565b925050819055507ff1b03f708b9c39f453fe3f0cef84164c7d6f7df836df0796e1e9c2bce6ee397e33346040516100ce9291906106ee565b60405180910390a1005b600080fd5b3480156100e957600080fd5b506100f2610235565b005b34801561010057600080fd5b506101096103cc565b6040516101169190610717565b60405180910390f35b34801561012b57600080fd5b5061014660048036038101906101419190610763565b6103d2565b60405161015391906107ab565b60405180910390f35b6101646103f2565b005b34801561017257600080fd5b5061018d600480360381019061018891906107f2565b61040d565b005b34801561019b57600080fd5b506101a461054f565b6040516101b19190610717565b60405180910390f35b3480156101c657600080fd5b506101e160048036038101906101dc9190610763565b610555565b6040516101ee91906107ab565b60405180910390f35b34801561020357600080fd5b5061021e600480360381019061021991906107f2565b610575565b60405161022c9291906108af565b60405180910390f35b600033905060045460035411610280576040517f08c379a00000000000000000000000000000000000000000000000000000000081526004016102779061092b565b60405180910390fd5b600260003373ffffffffffffffffffffffffffffffffffffffff1673ffffffffffffffffffffffffffffffffffffffff16815260200190815260200160002060009054906101000a900460ff161561030d576040517f08c379a000000000000000000000000000000000000000000000000000000000815260040161030490610997565b60405180910390fd5b6004546003600082825461032191906109b7565b925050819055508073ffffffffffffffffffffffffffffffffffffffff166108fc6004549081150290604051600060405180830381858888f19350505050158015610370573d6000803e3d6000fd5b506001600260003373ffffffffffffffffffffffffffffffffffffffff1673ffffffffffffffffffffffffffffffffffffffff16815260200190815260200160002060006101000a81548160ff02191690831515021790555050565b60045481565b60016020528060005260406000206000915054906101000a900460ff1681565b3460036000828254610404919061066a565b92505081905550565b600160003373ffffffffffffffffffffffffffffffffffffffff1673ffffffffffffffffffffffffffffffffffffffff16815260200190815260200160002060009054906101000a900460ff161561049a576040517f08c379a000000000000000000000000000000000000000000000000000000000815260040161049190610a37565b60405180910390fd5b6001600082815481106104b0576104af610a57565b5b9060005260206000209060020201600101546104cc919061066a565b600082815481106104e0576104df610a57565b5b90600052602060002090600202016001018190555060018060003373ffffffffffffffffffffffffffffffffffffffff1673ffffffffffffffffffffffffffffffffffffffff16815260200190815260200160002060006101000a81548160ff02191690831515021790555050565b60035481565b60026020528060005260406000206000915054906101000a900460ff1681565b6000818154811061058557600080fd5b90600052602060002090600202016000915090508060000180546105a890610ab5565b80601f01602080910402602001604051908101604052809291908181526020018280546105d490610ab5565b80156106215780601f106105f657610100808354040283529160200191610621565b820191906000526020600020905b81548152906001019060200180831161060457829003601f168201915b5050505050908060010154905082565b6000819050919050565b7f4e487b7100000000000000000000000000000000000000000000000000000000600052601160045260246000fd5b600061067582610631565b915061068083610631565b92508282019050808211156106985761069761063b565b5b92915050565b600073ffffffffffffffffffffffffffffffffffffffff82169050919050565b60006106c98261069e565b9050919050565b6106d9816106be565b82525050565b6106e881610631565b82525050565b600060408201905061070360008301856106d0565b61071060208301846106df565b9392505050565b600060208201905061072c60008301846106df565b92915050565b600080fd5b610740816106be565b811461074b57600080fd5b50565b60008135905061075d81610737565b92915050565b60006020828403121561077957610778610732565b5b60006107878482850161074e565b91505092915050565b60008115159050919050565b6107a581610790565b82525050565b60006020820190506107c0600083018461079c565b92915050565b6107cf81610631565b81146107da57600080fd5b50565b6000813590506107ec816107c6565b92915050565b60006020828403121561080857610807610732565b5b6000610816848285016107dd565b91505092915050565b600081519050919050565b600082825260208201905092915050565b60005b8381101561085957808201518184015260208101905061083e565b60008484015250505050565b6000601f19601f8301169050919050565b60006108818261081f565b61088b818561082a565b935061089b81856020860161083b565b6108a481610865565b840191505092915050565b600060408201905081810360008301526108c98185610876565b90506108d860208301846106df565b9392505050565b7f4e616f206861206d6169732073616c646f210000000000000000000000000000600082015250565b600061091560128361082a565b9150610920826108df565b602082019050919050565b6000602082019050818103600083015261094481610908565b9050919050565b7f4a61207361636f752c206e616f20706f6465206d6169732e2e2e000000000000600082015250565b6000610981601a8361082a565b915061098c8261094b565b602082019050919050565b600060208201905081810360008301526109b081610974565b9050919050565b60006109c282610631565b91506109cd83610631565b92508282039050818111156109e5576109e461063b565b5b92915050565b7f456c6569746f72206a6120766f746f7521000000000000000000000000000000600082015250565b6000610a2160118361082a565b9150610a2c826109eb565b602082019050919050565b60006020820190508181036000830152610a5081610a14565b9050919050565b7f4e487b7100000000000000000000000000000000000000000000000000000000600052603260045260246000fd5b7f4e487b7100000000000000000000000000000000000000000000000000000000600052602260045260246000fd5b60006002820490506001821680610acd57607f821691505b602082108103610ae057610adf610a86565b5b5091905056fea264697066735822122028d9aff219fffeac355266da243edebd5721810e3193bfccb83e1d94b264c06364736f6c63430008110033",
  "immutableReferences": {},
  "source": "pragma solidity >=0.8.0 <0.9.0;\n\n// SPDX-License-Identifier: GPL-3.0\ncontract Urna {\n    struct Presidenciavel {\n        string nome;\n        uint256 qtdVotos;\n    }\n\n    Presidenciavel[] public presidenciaveis;\n    mapping(address => bool) public eleitor;\n    mapping(address => bool) public sacou;\n\n    event TransferReceived(address _from, uint256 _amount);\n    event TransferSent(address _from, address _destAddr, uint256 _amount);\n\n    uint256 public Saldo;\n    uint256 public LimiteSaque = 60000;\n\n    receive() external payable {\n        Saldo += msg.value;\n        emit TransferReceived(msg.sender, msg.value);\n    }\n\n    constructor(string[] memory _nomePresidenciavel) {\n        uint256 Qtd = _nomePresidenciavel.length;\n        for (uint256 i = 0; i < Qtd; i++) {\n            presidenciaveis.push(\n                Presidenciavel({nome: _nomePresidenciavel[i], qtdVotos: 0})\n            );\n        }\n    }\n\n    function deposito() public payable {\n        Saldo += msg.value;\n    }\n\n    function Votar(uint256 _id) public {\n        require(!eleitor[msg.sender], \"Eleitor ja votou!\");\n        presidenciaveis[_id].qtdVotos = presidenciaveis[_id].qtdVotos + 1;\n        eleitor[msg.sender] = true;\n    }\n\n    function Saque() public {\n        address payable to = payable(msg.sender);\n        require(Saldo > LimiteSaque, \"Nao ha mais saldo!\");\n        require(!sacou[msg.sender], \"Ja sacou, nao pode mais...\");\n\n        Saldo -= LimiteSaque;\n        to.transfer(LimiteSaque);\n        sacou[msg.sender] = true;\n    }\n}\n",
  "sourcePath": "/var/www/html/react/Cyber Urna/contracts/cyberUrna.sol",
  "compiler": {
    "name": "solc",
    "version": "0.8.17+commit.8df45f5f.Emscripten.clang"
  },
  "schemaVersion": "3.4.10",
  "updatedAt": "2022-10-18T23:15:34.929Z",
  "networkType": "ethereum",
  "devdoc": {
    "kind": "dev",
    "methods": {},
    "version": 1
  },
  "userdoc": {
    "kind": "user",
    "methods": {},
    "version": 1
  }
}